:100000000C94E8010C9410020C9410020C94100251
:100010000C9410020C9410020C9410020C94100218
:100020000C9410020C9410020C9410020C94100208
:100030000C9410020C9410020C9410020C941002F8
:100040000C940F330C9410020C9479050C94B505A4
:100050000C9410020C9410020C9410020C941002D8
:100060000C9410020C9410025B085B086108640891
:1000700067086A086D0870087308760879087C08B4
:100080007F088208850888088B08084AD73B3BCE42
:10009000016E84BCBFFDC12F3D6C74319ABD568387
:1000A0003DDA3D00C77F11BED9E4BB4C3E916BAA3F
:1000B000AABE000000803F05A84CCDB2D44EB9388E
:1000C00036A9020C50B9918688083CA6AAAA2ABE75
:1000D000000000803F0664EC1B3C04BC163E3BE580
:1000E000B93CC93C37C29E5A3D660498083EEA694D
:1000F000AAAA3E000000803FEAEB00EAEC00426F53
:100100006F74696E672075703A205B5F5F5F5F5F39
:100110005F5F5F5D0057616974696E6720666F722B
:100120007C4D41564C696E6B2068656172746265E6
:100130006174732E2E2E00C8202020202020202025
:1001400020202020C900C82020202020202020207E
:10015000202020C97C00D820202020202020202002
:10016000202020D97C00C8202020202020202020F2
:10017000202020C97C00C8202020202020202020F2
:10018000202020C97C00050304057C1513141500EC
:1001900042617474657279207761726E696E67204E
:1001A000002020205374616C6C20537065656420BE
:1001B000202000202020204F7665727370656564D2
:1001C000202020200016202090912000417264758C
:1001D00043414D204F534420434E2076322E327CF3
:1001E0006279204A6F686E736F6E204C696E7C3244
:1001F0003031362E35004368617220446F6E650AD7
:1002000000526561647920666F7220466F6E740AD1
:1002100000557064617465204368617253657400B1
:10022000230052657175657374696E67204461744B
:100230006153747265616D732E2E2E0045455052C8
:100240004F4D206D617070696E67206F75746461C9
:10025000746564217C557064617465207769746885
:1002600020746865204F534420546F6F6C2E00003B
:10027000407A10F35A00A0724E18090010A5D4E875
:100280000000E87648170000E40B54020000CA9A08
:100290003B000000E1F5050000809698000000405A
:1002A000420F000000A0860100000010270000009F
:1002B00000E803000000006400000000000A0000E5
:1002C0000000000100000000002C76D888DC674F99
:1002D0000823DFC1DFAE59E1B1B796E5E3E453C6C9
:1002E0003AE651997696E8E6C28426EB898C9B62C1
:1002F000ED407C6FFCEFBC9C9F40F2BAA56FA5F46B
:1003000090055A2AF75C936B6CF9676DC11BFCE092
:10031000E40D47FEF520E6B500D0ED902E030094E5
:100320003577050080841E080000204E0A0000007A
:10033000C80C333333330F986E12831141EF8D2184
:1003400014893BE65516CFFEE6DB18D1844B381BEB
:10035000F77C1D901DA4BBE424203284725E2281B0
:1003600000C9F124ECA1E53D276E616E00696E665F
:100370000000000000240027002A000000000025E3
:100380000028002B000000000023002600290004A4
:10039000040404040404040202020202020303032C
:1003A0000303030102040810204080010204081026
:1003B00020010204081020000000070002010000D4
:1003C000030406000000000000000000F906702A87
:1003D00011241FBECFEFD8E0DEBFCDBF14E0A0E0F8
:1003E000B1E0E0E0F2E702C005900D92A234B1075F
:1003F000D9F716E0A2E4B4E001C01D92A236B1071D
:10040000E1F713E0C0EDD3E004C02297FE010E94A3
:10041000FA38CC3CD107C9F70E9497340C94FE38C7
:100420000C940000283008F027E03327DA01990FF8
:10043000311D87FD916000966105710539F43260C8
:100440002E5F3D9330E32A95E1F708959F3F30F00A
:1004500080387105610509F03C5F3C5F3D93913048
:1004600008F08068911DDF93CF931F930F93FF9245
:10047000EF92192F987F9695E92F96959695E90F0B
:10048000FF27E753FD4F99273327EE24FF24A701C9
:10049000E70105900894079428F4360FE71EF81E2C
:1004A000491F511D660F771F881F991F0694A1F7DA
:1004B0000590079428F4E70EF81E491F561FC11D2A
:1004C000770F881F991F661F0694A1F70590079460
:1004D00028F4F80E491F561FC71FD11D880F991FFA
:1004E000661F771F0694A1F70590079420F4490F23
:1004F000561FC71FD81F990F661F771F881F0694A6
:10050000A9F784911095177041F0D695C795579526
:100510004795F794E7941A95C1F7EFE6F2E06894EF
:100520001590159135916591959105907FE27395A0
:10053000E118F10A430B560BC90BD009C0F7E10CC7
:10054000F11E431F561FC91FD01D7EF4703311F4D6
:100550008A95E6CFE894015030F0080F0AF400279E
:10056000021708F4202F2395022F7A3328F079E31D
:100570007D932A95E9F710C07D932A9589F6069414
:1005800097956795379517951794E118F10A430BDE
:10059000560BC90BD00998F023957E9173957A3349
:1005A00008F070E37C932013B8F77E9170617D931F
:1005B00030F0839571E37D9370E32A95E1F7112480
:1005C000EF90FF900F911F91CF91DF91992787FDB9
:1005D00090950895FA01AA27283051F1203181F130
:1005E000E8946F936E7F6E5F7F4F8F4F9F4FAF4F3B
:1005F000B1E03ED0B4E03CD0670F781F891F9A1F4E
:10060000A11D680F791F8A1F911DA11D6A0F711D01
:10061000811D911DA11D20D009F468943F912AE00D
:10062000269F11243019305D3193DEF6CF010895F5
:10063000462F4770405D4193B3E00FD0C9F7F6CF26
:10064000462F4F70405D4A3318F0495D31FD4052EE
:10065000419302D0A9F7EACFB4E0A6959795879584
:1006600077956795BA95C9F7009761057105089563
:100670009B01AC010A2E069457954795379527950F
:10068000BA95C9F7620F731F841F951FA01D0895A7
:10069000FC010590615070400110D8F7809590954D
:1006A0008E0F9F1F0895FC01615070400190011052
:1006B000D8F7809590958E0F9F1F0895FC011382A7
:1006C000128288EE93E0A0E0B0E084839583A68355
:1006D000B78386EE92E0918380830895FC01808940
:1006E000803419F421E030E002C020E030E0C9019C
:1006F0000895FC01818990E00895FC016487458795
:1007000066874787089580E090E0089580E090E054
:10071000089580E090E008950895EF92FF921F936E
:10072000CF93DF93162F7A0186E060E00E94423477
:100730008EE396E060E00E94542A8EE396E060E04B
:100740000E94542A8EE396E069E00E94542A8EE3C8
:1007500096E0612F0E94542AC0E0D0E0F701EC0F30
:10076000FD1F10818EE396E06AE00E94542A8EE31A
:1007700096E06C2F0E94542A8EE396E06BE00E9474
:10078000542A8EE396E0612F0E94542A2196C633A4
:10079000D10521F78EE396E068E00E94542A8EE3AB
:1007A00096E060EA0E94542A8EE396E060EA0E9496
:1007B000542A85FDF9CF8EE396E060E00E94542A2A
:1007C0008EE396E06CE00E94542A86E061E00E948D
:1007D0004234DF91CF911F91FF90EF9008951F93C6
:1007E000CF93DF93EC01162F86E060E00E94423445
:1007F0008EE396E060E00E94542A112319F0113034
:1008000059F404C08EE396E0688904C068896C617D
:100810008EE396E00E94542A86E061E00E94423412
:10082000DF91CF911F910895EF92FF920F931F9345
:100830008EE1489F70011124E60EF11C86E060E015
:100840000E9442340EE316E0C80165E00E94542A7B
:10085000C8016F2D0E94542AC80166E00E94542AE4
:10086000C8016E2D0E94542A1F910F91FF90EF90A6
:100870000895EF92FF920F931F937C010EE316E011
:10088000C80167E00E94542AC8016FEF0E94542AF1
:1008900086E061E00E944234F70187858F5F878799
:1008A0001F910F91FF90EF900895EF92FF920F9399
:1008B0001F93FC01E7848EE1E89E70011124868578
:1008C000E80EF11C86E060E00E9442340EE316E080
:1008D000C80164E00E94542AC80163E00E94542ABF
:1008E000C80165E00E94542AC8016F2D0E94542A55
:1008F000C80166E00E94542AC8016E2D0E94542A45
:100900001F910F91FF90EF9008951F93CF93DF9366
:10091000EC01162F6C3731F40E943904CE010E948D
:1009200055040AC08EE396E067E00E94542A8EE3E5
:1009300096E0612F0E94542A81E090E0DF91CF91F0
:100940001F9108950F931F9386E060E00E94423448
:100950000EE316E0C80164E00E94542AC80164E076
:100960000E94542A86E061E00E9442341F910F9158
:1009700008951F93CF93DF93EC01188A16E0198B2B
:1009800080E596E060E973E00E943A31813049F4F5
:1009900080E4888B88E0898B86E060E00E944234A6
:1009A00002C0188A198B86E060E00E944234DF9111
:1009B000CF911F9108951F93CF93DF93EC0186E0B1
:1009C00061E00E94033482E060E00E94033482E030
:1009D00061E00E944234CE010E94B90486E060E0EA
:1009E0000E9442348EE396E06CEE0E94542A8EE31D
:1009F00096E06FEF0E94542A182F8EE396E060E095
:100A00000E94542A688962608EE396E00E94542A0C
:100A100062E370E080E090E00E9465338EE396E050
:100A20006CE60E94542A1F7E8EE396E0612F0E949E
:100A3000542A109243041092420417C06091420459
:100A400070914304605F8EE396E00E94542A8EE327
:100A500096E060E00E94542A809142049091430401
:100A600001969093430480934204809142049091B4
:100A700043040C971CF3CE0161E00E94EF03DF9169
:100A8000CF911F910895CF92DF92EF92FF920F9333
:100A90001F93CF93DF938C016B017A01C0E0D0E00C
:100AA0001CC0F601EC0FFD1F60810115110521F03E
:100AB0000130110589F405C0E0915106F09152060C
:100AC00004C0E0915306F0915406A081B1812D91AC
:100AD0003C91CF01F90109952196CE15DF0508F368
:100AE000DF91CF911F910F91FF90EF90DF90CF900A
:100AF00008951F920F920FB60F9211242F933F93D8
:100B00004F938F939F93EF93FF934091C600209153
:100B10003F06309140062F5F3F4F809143069091F2
:100B200044062823392380914106909142062817D4
:100B3000390779F080913F0690914006E091450693
:100B4000F0914606E80FF91F40833093400620934A
:100B50003F06FF91EF919F918F914F913F912F9180
:100B60000F900FBE0F901F9018951F920F920FB607
:100B70000F9211242F933F938F939F93EF93FF93A3
:100B80002091490630914A06809147069091480687
:100B900028173907E9F08091490690914A06E091BB
:100BA0004D06F0914E06E80FF91F80818093C60034
:100BB0008091490690914A06019620914B0630910A
:100BC0004C068223932390934A068093490610C0D3
:100BD00020914706309148068091490690914A0637
:100BE0002817390729F48091C1008F7D8093C100B7
:100BF000FF91EF919F918F913F912F910F900FBE99
:100C00000F901F9018952F923F924F925F926F9284
:100C10007F928F929F92AF92BF92CF92DF92EF928C
:100C2000FF920F931F93DF93CF93CDB7DEB72E972D
:100C30000FB6F894DEBF0FBECDBF00E014E064EF46
:100C4000E62E63E0F62E53E0C52ED12CCC0EDD1E31
:100C500042E4242E3AE0432E512C4C0E5D1E2FE030
:100C6000622E712C6C0E7D1E99E0892E912C8C0EBB
:100C70009D1E84E9382E5E010894A11CB11C2091B0
:100C8000A7053091A805F8014081F7018081918185
:100C90009C838B832D833E834F83F1E0F8878EEF17
:100CA000898796E09A8790912C069B878091D6023F
:100CB0008C878091D7028D872E869F5F90932C061C
:100CC0006FEF7FEFF2011CC021912627822F8295C2
:100CD000807F822790E0382F2227AC01A3E0440FC9
:100CE000551FAA95E1F724273527672F7727622715
:100CF0007327A4E095958795AA95E1F7682779274A
:100D0000E615F70509F7F6011AC081918627282F05
:100D10002295207F282730E0722F6627C90143E003
:100D2000880F991F4A95E1F7682779276A277B275B
:100D3000B4E035952795BA95E1F762277327A72F79
:100D4000BB27E815F90509F7862F8325282F22955B
:100D5000207F282730E0922F8827A90163E0440FE5
:100D6000551F6A95E1F7842795278A279B2744E03A
:100D7000359527954A95E1F78227932789839A83AA
:100D800080E090E0BF0146E050E00E94430580E033
:100D900090E0B60146E050E00E94430580E090E01C
:100DA000B50142E050E00E9443050F5F1F4FE2E0B3
:100DB000F0E0EE0EFF1EF4E006301F0709F05FCFF3
:100DC0002E960FB6F894DEBF0FBECDBFCF91DF9148
:100DD0001F910F91FF90EF90DF90CF90BF90AF9059
:100DE0009F908F907F906F905F904F903F902F904B
:100DF00008958F92AF92CF92EF92FF920F931F932D
:100E000088EC94E060E045EC50E024EC30E000EC4D
:100E100010E0F1ECEF2EF12CCC24C394E8E9AE2ED7
:100E200070E2872E0E94AA2A85EE94E00E945E035B
:100E30001092F8041092F9041092FA041092FB0434
:100E40001092FC041092FD041092FE041092FF0414
:100E500010920105109200051092F7041F910F9156
:100E6000FF90EF90CF90AF908F90089580E596E03F
:100E70006AE773E00E943A318823E9F486E696E651
:100E8000A6E6B0E48093020590930305A0930405C1
:100E9000B093050580E090E0A0E8BFE380930605ED
:100EA00090930705A0930805B093090581E8809306
:100EB0000A058DE81CC082E598EBAEE0B0E48093B3
:100EC000020590930305A0930405B093050585E8FA
:100ED0009BEEA1E5B0E48093060590930705A093EF
:100EE0000805B09309058BEF80930A0586E6809389
:100EF0000B050895CF93DF9380E596E06CE773E0F0
:100F00000E943A3180934D0580E596E06EE773E0EC
:100F10000E943A3180934C0580E596E060E873E0EA
:100F20000E943A3180934E0580E596E06EE873E0CA
:100F30000E943A318093850580E596E06AE873E087
:100F40000E943A3180937C0580E596E064E873E086
:100F50000E943A3180939F0580E596E066E873E051
:100F60000E943A3180939E0580E596E06CE873E03C
:100F70000E943A3110925105882319F081E0809344
:100F8000510580E596E062E973E00E943A31809372
:100F90004F0580E596E064E973E00E943A31809362
:100FA0005005C0E0D0E0BE0168567C4F80E596E079
:100FB0000E943A31FE01EC56FA4F8083882321F0DB
:100FC0002196C830D10579F7CC56DA4F1982DF91D6
:100FD000CF910895BC0180E596E00E943A310895D2
:100FE0001F93282F362F142F85EE94E0622F432F66
:100FF0000E9414041530F9F0163060F41230A9F094
:10100000133018F4113001F50EC0133081F0143094
:10101000D9F40FC0173099F0173078F0183089F0F4
:10102000193091F410C026E00FC027E00DC028E071
:101030000BC029E009C02AE007C02BE005C02CE066
:1010400003C02DE001C02EE000D000D000D0EDB7ED
:10105000FEB7319685EE94E0ADB7BEB712969C937D
:101060008E93119780E091E093838283822F99275A
:1010700087FD9095958384830E94892A8DB79EB7BA
:1010800006960FB6F8949EBF0FBE8DBF1F910895B0
:10109000EF92FF920F931F93CF93DF93E82FF0E02F
:1010A000E131F10558F4EC5CFF4FEE0FFF1F0590A6
:1010B000F491E02D099490E981E92FC090E080E05F
:1010C0002CC092E983E929C094E985E926C096E914
:1010D00087E923C098E989E920C09AE98BE91DC016
:1010E0009CE98DE91AC09EE98FE917C090EA81EA70
:1010F00014C092EA83EA11C094EA85EA0EC096EA27
:1011000087EA0BC098EA89EA08C09AEA8BEA05C028
:101110009CEA8DEA02C09EEA8FEA25EE34E0C92FF0
:10112000DD27C7FDD095E82EFF24E7FCF094613061
:1011300009F04AC08DB79EB740970FB6F8949EBF8E
:101140000FBE8DBF0DB71EB70F5F1F4FADB7BEB738
:1011500012963C932E93119783E091E0F8019383CC
:10116000828384ED90E09583848360910E05709175
:101170000F05809110059091110520910205309185
:10118000030540910405509105050E946E37D80172
:1011900016966D937D938D939C93199780910A0574
:1011A0001A968C931A971B961C921B971D96DC938C
:1011B000CE931C971F96FC92EE921E970E94892A4E
:1011C000EDB7FEB770961EC08DB79EB708970FB6E5
:1011D000F8949EBF0FBE8DBFEDB7FEB73196ADB789
:1011E000BEB712963C932E93119782E191E09383C0
:1011F0008283D583C483F782E6820E94892AEDB771
:10120000FEB738960FB6F894FEBF0FBEEDBFDF9164
:10121000CF911F910F91FF90EF9008952F923F92E1
:101220004F925F926F927F928F929F92AF92BF92F6
:10123000CF92DF92EF92FF920F931F93DF93CF93A2
:10124000CDB7DEB76C970FB6F894DEBF0FBECDBF3B
:101250008B8F6C8F80910C05682F772767FD7095B9
:101260009B0177FF04C022273327261B370B2A3523
:10127000310589F48AE590E00E949438882777FD4B
:101280008095982F0E943B3621EE3AEF43EB52E4D3
:101290000E946E3708C0682F772767FD7095872FEB
:1012A000972F0E943B3625E33AEF4EE85CEB0E9415
:1012B0006E37962EE72E8C0180910D05682F7727CB
:1012C00067FD70959B0177FF04C022273327261BFB
:1012D000370B2A35310589F48AE590E00E9494386D
:1012E000882777FD8095982F0E943B3621EE3AEFB4
:1012F00043EB52E40E946E3708C0682F772767FDE2
:101300007095872F972F0E943B3625E33AEF4EE8E2
:101310005CE30E946E375B016C01292D3E2DB90103
:10132000C8010E94423820E030E044E352E40E94C9
:101330006E370E94D1370E9408367B018C01B501BF
:10134000C6010E9442381B012C015E010894A11CB9
:10135000B11CBA8EA98E1EEBC12E1FEFD12E370104
:10136000882477FC8094982CB601882777FD809597
:10137000982F0E943B369B01AC01C201B1010E9433
:101380006E377B018C01C401B3010E943B369B0187
:10139000AC01C801B7010E94D33420E030E044E33F
:1013A00052E40E94D33420E030E040E85FE30E9442
:1013B000D2340E940836E98DFA8D61937193FA8FC9
:1013C000E98F4CE050E0C40ED51E5EE4C516D10492
:1013D00059F6EB8CBEEE8B2EBFEF9B2EA9E1CA2EE9
:1013E000D12CCC0EDD1EF50120813181C901019780
:1013F0008935910568F56EEE7FEF0E9494388B0178
:101400000B5F1F4F2B553040089DC001099D900D6B
:10141000189D900D1124A901481B590BCA0162E0C7
:1014200070E00E949438882777FD8095982F0E945D
:101430003B360E94D1370E940836AB01672B11F46E
:1014400041E050E06C8D600F61508E2D0E94F007DE
:1014500082E090E0A80EB91EE394AC14BD0419F626
:101460006C960FB6F894DEBF0FBECDBFCF91DF9163
:101470001F910F91FF90EF90DF90CF90BF90AF90B2
:101480009F908F907F906F905F904F903F902F90A4
:10149000089560911A0570911B0580911C0590912B
:1014A0001D0520E030E040E152E40E946E3720E06C
:1014B00030E044EB53E40E94A0350E94D1370E94F3
:1014C00008369B012550304037FF03C09B01215E49
:1014D0003F4FA0E2B5E0F901EA5FFB4F80818C93BA
:1014E0002F5F3F4F2432310514F020E030E0119699
:1014F00085E0AB32B80779F71C9208950F931F93DC
:10150000282F462F85EE94E0622F0E947D0385EE02
:1015100094E00E94550427E131E080911205823069
:1015200009F041C080911305882309F44DC0813032
:1015300009F454C0823019F42EE131E07EC08330CA
:1015400009F465C0843009F471C0853009F469C0BC
:10155000863009F461C0873091F1883019F420E3B6
:1015600031E06BC0893019F423E331E066C08A3082
:1015700019F426E331E061C08B3019F429E331E03E
:101580005CC08D3019F42CE331E057C08E3019F473
:101590002FE331E052C08F30A9F1803109F04DC006
:1015A00025E431E04AC0813009F047C0809113053D
:1015B000882319F428E431E040C0813019F42DE289
:1015C00031E03BC0823019F428E131E036C083308D
:1015D00019F42BE431E031C0843019F42BE131E00F
:1015E0002CC0853019F42EE431E027C0863019F480
:1015F00023E531E022C0873019F428E531E01DC031
:10160000883019F422E431E018C08A3019F421E25C
:1016100031E013C08B3019F42AE231E00EC08C3077
:1016200019F427E231E009C08F3019F424E231E0E7
:1016300004C0803111F42BE531E08DB79EB70897D7
:101640000FB6F8949EBF0FBE8DBFEDB7FEB73196B3
:1016500005EE14E0ADB7BEB712961C930E9311972A
:101660008FE591E0938382838AE190E09583848380
:10167000378326830E94892A8DB79EB708960FB6B6
:10168000F8949EBF0FBE8DBFC8010E9439041F9100
:101690000F9108950F931F93282F462F05EE14E006
:1016A000C801622F0E947D03C8010E9455048091E9
:1016B000140560E00E944808C8010E9439041F9187
:1016C0000F910895EF92FF920F931F93282F462FAB
:1016D00005EEE02E04E0F02EC701622F0E947D038C
:1016E000C7010E9455048DB79EB740970FB6F89476
:1016F0009EBF0FBE8DBF0DB71EB70F5F1F4FEDB75B
:10170000FEB7F282E18285E691E0F801938382835D
:1017100087E590E095838483809115058683178201
:1017200011861086609116057091170580E090E093
:101730000E94393620910605309107054091080531
:10174000509109050E946E37F8016287738784877C
:10175000958780910B05868717860E94892A8DB709
:101760009EB740960FB6F8949EBF0FBE8DBFC701BF
:101770000E9439041F910F91FF90EF900895282F38
:10178000462F85EE94E0622F0E947D0385EE94E063
:101790000E9455046091180570911905882777FDFE
:1017A0008095982F0E943B3620911A0530911B0599
:1017B00040911C0550911D050E94D23420E030E07C
:1017C00044EB53E40E94A03520E030E040E851E4CF
:1017D0000E946E370E94D13720E030E040E85FE39E
:1017E0000E94D3340E940836862F60931E0567FF3F
:1017F00003C0805F80931E0580911E0560E00E94FB
:10180000480885EE94E00E94390408950F931F93D1
:10181000282F462F05EE14E0C801622F0E947D0399
:10182000C8010E9455048DB79EB70C970FB6F89467
:101830009EBF0FBE8DBFEDB7FEB73196ADB7BEB739
:1018400012961C930E93119784E791E09383828301
:101850008EE791E09583848380ED90E09783868383
:1018600080E295E09187808781ED90E09387828781
:101870000E94892A8DB79EB70C960FB6F8949EBF2A
:101880000FBE8DBFC8010E9439041F910F910895AA
:101890000F931F93282F462F05EE14E0C801622FE7
:1018A0000E947D03C8010E9455048DB79EB70A9718
:1018B0000FB6F8949EBF0FBE8DBFEDB7FEB7319641
:1018C000ADB7BEB712961C930E9311978CE891E0BA
:1018D0009383828380911A0590911B05A0911C052A
:1018E000B0911D0584839583A683B78380EB90E038
:1018F000918780870E94892A8DB79EB70A960FB676
:10190000F8949EBF0FBE8DBFC8010E9439041F917D
:101910000F9108950F931F93282F462F05EE14E083
:10192000C801622F0E947D03C8010E9455048DB733
:101930009EB740970FB6F8949EBF0FBE8DBFEDB710
:10194000FEB73196ADB7BEB712961C930E931197A2
:1019500084E991E09383828387E190E09583848397
:1019600080912C0590912D05A0912E05B0912F0509
:1019700086839783A087B18788E190E093878287E9
:101980008091300590913105A0913205B0913305D9
:1019900084879587A687B7870E94892A8DB79EB7C7
:1019A00040960FB6F8949EBF0FBE8DBFC8010E942F
:1019B00039041F910F9108950F931F93282F462FDD
:1019C00005EE14E0C801622F0E947D03C8010E9449
:1019D00055048DB79EB708970FB6F8949EBF0FBEFB
:1019E0008DBFEDB7FEB73196ADB7BEB712961C935B
:1019F0000E93119786EA91E0938382838FE090E0C3
:101A00009583848380913405868317820E94892A76
:101A10008DB79EB708960FB6F8949EBF0FBE8DBFC8
:101A2000C8010E9439041F910F9108950F931F93CD
:101A3000282F462F85EE94E0622F0E947D0385EECD
:101A400094E00E94550480913505823019F42CEA07
:101A500031E007C0833019F42EEA31E002C020EBF8
:101A600031E000D000D000D0EDB7FEB7319605EEE2
:101A700014E0ADB7BEB712961C930E93119782EB8C
:101A800091E093838283358324830E94892A8DB7D2
:101A90009EB706960FB6F8949EBF0FBE8DBFC801C5
:101AA0000E9439041F910F9108950F931F93282FBF
:101AB000462F05EE14E0C801622F0E947D03C80185
:101AC0000E9455048DB79EB70C970FB6F8949EBF31
:101AD0000FBE8DBFEDB7FEB73196ADB7BEB712964C
:101AE0001C930E93119785EB91E0938382838BEC8B
:101AF00090E0958384838091360590913705A0917D
:101B00003805B091390586839783A087B1878EE821
:101B100090E0938782870E94892A8DB79EB70C96A2
:101B20000FB6F8949EBF0FBE8DBFC8010E94390446
:101B30001F910F9108950F931F93282F462F05EEA5
:101B400014E0C801622F0E947D03C8010E94550461
:101B50008DB79EB70A970FB6F8949EBF0FBE8DBF84
:101B6000EDB7FEB73196ADB7BEB712961C930E9384
:101B700011978FEB91E09383828380910D059927D4
:101B800087FD90959583848380EB90E0978386838F
:101B900082EB90E0918780870E94892A8DB79EB75B
:101BA0000A960FB6F8949EBF0FBE8DBFC8010E9463
:101BB00039041F910F9108950F931F93282F462FDB
:101BC00005EE14E0C801622F0E947D03C8010E9447
:101BD00055048DB79EB70A970FB6F8949EBF0FBEF7
:101BE0008DBFEDB7FEB73196ADB7BEB712961C9359
:101BF0000E9311978FEB91E09383828380910C0574
:101C0000992787FD90959583848380EB90E0978357
:101C1000868381EB90E0918780870E94892A8DB727
:101C20009EB70A960FB6F8949EBF0FBE8DBFC8012F
:101C30000E9439041F910F910895EF92FF920F9324
:101C40001F93282F462F85EEE82E84E0F82EC7013B
:101C5000622F0E947D03C7010E9455048DB79EB775
:101C60000C970FB6F8949EBF0FBE8DBF0DB71EB771
:101C70000F5F1F4FEDB7FEB7F282E18287EC91E074
:101C8000F8019383828381E190E09583848360915E
:101C90003A0570913B0580913C0590913D050E946D
:101CA0003B3620910605309107054091080550917B
:101CB00009050E946E37F8016683778380879187D4
:101CC00080910B05828713860E94892A8DB79EB763
:101CD0000C960FB6F8949EBF0FBE8DBFC7010E9431
:101CE00039041F910F91FF90EF9008950F931F9368
:101CF000282F462F05EE14E0C801622F0E947D03B5
:101D0000C8010E9455048DB79EB70A970FB6F89484
:101D10009EBF0FBE8DBFEDB7FEB73196ADB7BEB754
:101D200012961C930E93119781ED91E09383828319
:101D300084EB90E09583848380913E05992787FD0D
:101D400090959783868385E290E0918780870E94B3
:101D5000892A8DB79EB70A960FB6F8949EBF0FBE1C
:101D60008DBFC8010E9439041F910F9108950F93F0
:101D70001F93282F462F05EE14E0C801622F0E9402
:101D80007D03C8010E9455048DB79EB70A970FB610
:101D9000F8949EBF0FBE8DBFEDB7FEB73196ADB7BD
:101DA000BEB712961C930E93119781ED91E0938329
:101DB000828389E190E09583848380913F059091AF
:101DC00040059783868385E290E0918780870E9413
:101DD000892A8DB79EB70A960FB6F8949EBF0FBE9C
:101DE0008DBFC8010E9439041F910F910895EF9291
:101DF000FF920F931F93282F462F95EEE92E94E024
:101E0000F92EC701622F0E947D03C7010E9455046D
:101E10008DB79EB70C970FB6F8949EBF0FBE8DBFBF
:101E20000DB71EB70F5F1F4FEDB7FEB7F282E1820D
:101E30008BED91E0F8019383828382ED90E09583AE
:101E400084836091C6027091C7028091C80290910C
:101E5000C90220910205309103054091040550917B
:101E600005050E946E37F801668377838087918726
:101E700080910A05828713860E94892A8DB79EB7B2
:101E80000C960FB6F8949EBF0FBE8DBFC7010E947F
:101E900039041F910F91FF90EF900895EF92FF92F8
:101EA0000F931F93282F462F35EEE32E34E0F32EA9
:101EB000C701622F0E947D03C7010E9455048DB7A0
:101EC0009EB70C970FB6F8949EBF0FBE8DBF0DB78F
:101ED0001EB70F5F1F4FEDB7FEB7F282E1828BEDA9
:101EE00091E0F8019383828383ED90E0958384836E
:101EF0006091540570915505809156059091570554
:101F0000209102053091030540910405509105058B
:101F10000E946E37F801668377838087918780916E
:101F20000A05828713860E94892A8DB79EB70C9670
:101F30000FB6F8949EBF0FBE8DBFC7010E94390433
:101F40001F910F91FF90EF900895EF92FF920F93E2
:101F50001F93282F462F55EEE52E54E0F52EC7018E
:101F6000622F0E947D03C7010E9455048DB79EB762
:101F70000C970FB6F8949EBF0FBE8DBF0DB71EB75E
:101F80000F5F1F4FEDB7FEB7F282E18287EC91E061
:101F9000F801938382838EEC90E095838483609133
:101FA00058057091590580915A0590915B052091D3
:101FB0005C0530915D0540915E0550915F050E9482
:101FC000D2342091060530910705409108055091C3
:101FD00009050E946E37F8016683778380879187B1
:101FE00080910B05828713860E94892A8DB79EB740
:101FF0000C960FB6F8949EBF0FBE8DBFC7010E940E
:1020000039041F910F91FF90EF9008950F931F9344
:10201000282F462F05EE14E0C801622F0E947D0391
:10202000C8010E9455048DB79EB70C970FB6F8945F
:102030009EBF0FBE8DBFEDB7FEB73196ADB7BEB731
:1020400012961C930E9311978BED91E093838283EC
:1020500080E190E095838483809160059091610593
:10206000A0916205B091630586839783A087B187AD
:1020700088E890E0938782870E94892A8DB79EB76F
:102080000C960FB6F8949EBF0FBE8DBFC8010E947C
:1020900039041F910F910895EF92FF920F931F93B0
:1020A000282F462F65EEE62E64E0F62EC701622F3C
:1020B0000E947D03C7010E9455048DB79EB70C97FF
:1020C0000FB6F8949EBF0FBE8DBF0DB71EB70F5F42
:1020D0001F4FEDB7FEB7F282E18287EC91E0F80185
:1020E000938382838DEC90E095838483609158057F
:1020F0007091590580915A0590915B0520910605D4
:102100003091070540910805509109050E946E37EE
:10211000F801668377838087918780910B0582879A
:1021200013860E94892A8DB79EB70C960FB6F89435
:102130009EBF0FBE8DBFC7010E9439041F910F9132
:10214000FF90EF900895EF92FF920F931F93282F27
:10215000462F75EEE72E74E0F72EC701622F0E941E
:102160007D03C7010E9455048DB79EB70C970FB62B
:10217000F8949EBF0FBE8DBF0DB71EB70F5F1F4FE8
:10218000EDB7FEB7F282E18285EB91E0F80193832F
:1021900082838CEC90E095838483609164057091D8
:1021A0006505882777FD8095982F0E943B362AE0A9
:1021B00037ED43E25CE30E946E37F8016683778374
:1021C000808791878FE890E0938782870E94892A91
:1021D0008DB79EB70C960FB6F8949EBF0FBE8DBFFD
:1021E000C7010E9439041F910F91FF90EF9008954D
:1021F000AF92BF92CF92DF92EF92FF920F931F9315
:10220000282F462F15EEA12E14E0B12EC501622F06
:102210000E947D03C5010E9455048DB79EB7865468
:1022200090400FB6F8949EBF0FBE8DBF0DB71EB77E
:102230000F5F1F4FEDB7FEB7B282A18285EE91E02E
:10224000F801938382832EE430E03583248382E592
:1022500090E0978386838091660590916705A091B1
:102260006805B091690580879187A287B38740EBA5
:1022700050E0558744873787268780E590E0918B2B
:10228000808B80916A0590916B05A0916C05B0914F
:102290006D05828B938BA48BB58B578B468B318FBF
:1022A000208F88E490E0938F828F80916E059091CB
:1022B0006F05958F848F578F468F84E590E091A3AB
:1022C00080A382E490E093A382A38091180590916B
:1022D000190595A384A357A346A3B1E4CB2ED12C13
:1022E000D1A6C0A6A5E4EA2EF12CF3A6E2A6609141
:1022F0007005709171058091720590917305209120
:1023000006053091070540910805509109050E9486
:102310006E37F80164A775A786A797A780910B056C
:1023200080AB11AA88E590E093AB82ABF5AAE4AA52
:102330008091740590917505A0917605B09177050F
:1023400086AB97ABA0AFB1AF8DE690E093AF82AF15
:10235000D5AEC4AEF7AEE6AE609178057091790562
:1023600080917A0590917B0520E030E048EC52E4C2
:102370000E94A0352091020530910305409104058B
:10238000509105050E946E37005C1F4FF801619364
:1023900071938193919380910A05808311820E94A9
:1023A000892A8DB79EB78A5B9F4F0FB6F8949EBF60
:1023B0000FBE8DBFC5010E9439041F910F91FF9080
:1023C000EF90DF90CF90BF90AF900895282F462FC9
:1023D00085EE94E0622F0E947D0385EE94E00E94DA
:1023E00055046091870570918805809189059091C9
:1023F0008A0520911A0530911B0540911C055091CA
:102400001D050E94D23420E030E044EB53E40E94EA
:10241000A03520E030E040E851E40E946E370E9491
:10242000D13720E030E040E85FE30E94D3340E94DF
:102430000836862F60938B0567FF03C0805F80930B
:102440008B0580918B0561E00E94480885EE94E041
:102450000E94390408950F931F93282F462F05EEED
:1024600014E0C801622F0E947D03C8010E94550438
:1024700000D000D000D0EDB7FEB73196ADB7BEB7F3
:1024800012961C930E93119782EB91E093838283B3
:1024900084E995E0958384830E94892A8DB79EB74D
:1024A00006960FB6F8949EBF0FBE8DBFC8010E945E
:1024B00039041F910F910895CF92DF92EF92FF920E
:1024C0000F931F93282F462F85EE94E0622F0E94D2
:1024D0007D0385EE94E00E94550480919D05282F90
:1024E00030E03093CB022093CA02809151058823BB
:1024F00059F500919E0510E0201B310BB90188278A
:1025000077FD8095982F0E943B366B017C0160918E
:102510009F0570E0601B710B882777FD8095982FD1
:102520000E943B369B01AC01C701B6010E94A03559
:1025300020E030E048EC52E40E946E370E940836FA
:102540007093CB026093CA028091CA029091CB0231
:102550008D599F4F34F48DE99FEF9093CB02809378
:10256000CA028DB79EB70A970FB6F8949EBF0FBEEA
:102570008DBFEDB7FEB7319605EE14E0ADB7BEB72F
:1025800012961C930E93119789E392E093838283B2
:1025900081EE90E0958384838091CA029091CB0272
:1025A0009783868385E290E0918780870E94892ABD
:1025B0008DB79EB70A960FB6F8949EBF0FBE8DBF1B
:1025C000C8010E9439041F910F91FF90EF90DF9096
:1025D000CF900895CF93DF93282F462FC5EED4E0F8
:1025E000CE01622F0E947D03CE010E94550480918E
:1025F0001F05813079F400D000D0EDB7FEB7D2834B
:10260000C1838BEF90E0948383830E94782A109299
:102610001F050CC000D000D0EDB7FEB7D283C18338
:1026200088EF90E0948383830E94782A0F900F9024
:102630000F900F9085EE94E00E943904DF91CF91C6
:1026400008950F931F93282F462F05EE14E0C8011D
:10265000622F0E947D03C8010E94550400D000D063
:10266000EDB7FEB7128301838EEF90E094838383EE
:102670000E94782A0F900F900F900F90C8010E942F
:1026800039041F910F910895CF92DF92EF92FF923C
:102690000F931F937C01D62EC72E05EE14E0C801C0
:1026A0006E2D4D2D0E947D03C8010E94550400D05F
:1026B00000D0EDB7FEB71283018386E791E09483E3
:1026C00083830E94782AEDB7FEB71283018386E6E2
:1026D00091E0948383830E94782AEDB7FEB712833A
:1026E000018386E591E0948383830E94782AEDB785
:1026F000FEB71283018386E491E0948383830E9472
:10270000782AEDB7FEB71283018387E391E09483C3
:1027100083830E94782A0F900F900F900F90C8012A
:102720000E943904C70101966D2D7C2D0E940E096F
:102730001F910F91FF90EF90DF90CF9008950F932E
:102740001F93282F462F05EE14E0C801622F0E9428
:102750007D03C8010E94550400D000D0EDB7FEB73C
:102760001283018386E891E0948383830E94782A10
:102770000F900F900F900F90C8010E9439041F9185
:102780000F9108950F931F9305EE14E0C80165E0C3
:1027900045E00E947D03C8010E94550400D000D08E
:1027A000EDB7FEB7128301838CEC91E094838383B1
:1027B0000E94782A0F900F900F900F90C8010E94EE
:1027C00039041F910F910895EF92FF920F931F9379
:1027D000F82EE62E0E94C21305EE14E0C8016F2DFC
:1027E0004E2D0E947D03C8010E94550400D000D0E8
:1027F000EDB7FEB71283018385E191E09483838373
:102800000E94782A0F900F900F900F90C8010E949D
:1028100039041F910F91FF90EF900895EF92FF926E
:102820000F931F93282F462F05EEE02E04E0F02E85
:10283000C701622F0E947D03C7010E9455040E94B8
:10284000573328EE33E040E050E00E94A738CA0139
:10285000B9010E9439366093C2027093C30280931B
:10286000C4029093C5020E9408368B019C018DB76B
:102870009EB70C970FB6F8949EBF0FBE8DBFEDB7F5
:10288000FEB73196ADB7BEB71296FC92EE92119795
:1028900081E492E09383828383EB90E09583848349
:1028A000C8016CE370E00E949438CB016CE370E0E7
:1028B0000E949438978386838AE390E0918780878B
:1028C000C8016CE370E00E949438938782870E946D
:1028D000892A8DB79EB70C960FB6F8949EBF0FBE8F
:1028E0008DBFC7010E9439041F910F91FF90EF9097
:1028F00008952F923F924F925F926F927F928F92A4
:102900009F92AF92BF92CF92DF92EF92FF920F937E
:102910001F93DF93CF93CDB7DEB76B970FB6F894C5
:10292000DEBF0FBECDBF282F462F85EE94E0622F6D
:102930000E947D0385EE94E00E9455040E94573367
:102940002091410530914205409143055091440545
:10295000261737074807590708F09BC1809145059E
:10296000882391F0809346051092450581E080937D
:1029700047050E945733609348057093490580933B
:102980004A0590934B0521C10E945733605177420D
:1029900080409040209148053091490540914A057A
:1029A00050914B05261737074807590710F4109226
:1029B000470580914605E82EFF24FA82E982F090CF
:1029C0003505FD8690904505A090C602B090C702DF
:1029D000C090C802D090C9024090020550900305F3
:1029E000609004057090050520914C0530E0409101
:1029F0004D056091360570913705809138059091AD
:102A0000390569877A878B879C8790914E058091DD
:102A10003E05A82FBB27A7FDB095B887AF8380914F
:102A20004F05E82FF0E0FE83ED832090CA0230903E
:102A3000CB0280915005E82EFF24FC82EB8280902F
:102A4000510509811A811B8F0A8FE42EFF2400E0B3
:102A500010E0EE86FF86088B198B492F50E060E06E
:102A600070E04A8B5B8B6C8B7D8BB901882777FD7F
:102A70008095982F6E8B7F8B888F998FA1C08A8DC0
:102A80009B8D01969B8F8A8F06972CF0A1E0B0E07A
:102A9000BB8FAA8F1BC0EA8DFB8DE330F10509F4D3
:102AA00041C0E430F1053CF4E130F10579F03297B2
:102AB00009F07FC012C00A8D1B8D0430110509F486
:102AC0004AC00530110509F074C065C01D8512307B
:102AD00008F06FC0992493946CC0C601B501A3019E
:102AE00092010E946E377B018C016E897F89888DEF
:102AF000998D0E943B369B01AC01C801B7010E9431
:102B0000993588230CF055C0C601B50129E23CE592
:102B10004FE85FE30E94633718160CF04AC052E09A
:102B2000952E47C0C601B501A30192010E946E37E0
:102B30007B018C016E857F85888999890E94393651
:102B40009B01AC01C801B7010E94633718168CF5D0
:102B500043E0942E2EC06A897B898C899D890E94CE
:102B6000393620E030E040E251E40E94A0359B017C
:102B7000AC0169857A858B859C850E94993587FD96
:102B800007C02F8138854D815E81241735078CF46D
:102B900034E0932E0EC06B817C81261637064CF4F0
:102BA0007DE927167FEF370621F0882011F425E014
:102BB000922E8A8D9B8DA981BA818A179B0719F065
:102BC000992009F45CCF909245050E9457336851D3
:102BD0007C4F8F4F9F4F60934105709342058093C8
:102BE00043059093440580914705813051F48091CD
:102BF0005205813021F485EE94E00E94A2041092E7
:102C0000520580915305882319F427E532E023C04B
:102C1000809145058230A1F0833028F4882351F05B
:102C20008130C9F40AC0843089F0843060F0853086
:102C300091F40FC024E632E00EC021E732E00BC071
:102C40002EE732E008C02BE832E005C028E932E088
:102C500002C025EA32E000D000D000D0EDB7FEB7C8
:102C6000319685EE94E0ADB7BEB712969C938E93E5
:102C7000119782EB91E093838283358324830E94B2
:102C8000892AEDB7FEB736960FB6F894FEBF0FBE91
:102C9000EDBF85EE94E00E9439046B960FB6F89470
:102CA000DEBF0FBECDBFCF91DF911F910F91FF907F
:102CB000EF90DF90CF90BF90AF909F908F907F90DC
:102CC0006F905F904F903F902F900895EF92FF92FA
:102CD0000F931F9380917C05843009F068C0809128
:102CE0001205813041F4809113058B3009F438C10D
:102CF000813051F435C1823009F032C18091130521
:102D00008650823008F42CC19091130580917D0586
:102D10008917A1F190937D050E94573360937E053A
:102D200070937F05809380059093810590917D0538
:102D30008091CC02981711F580915205813091F065
:102D4000813018F08230B1F413C011E010935205B5
:102D50000E94573361567A4E8040904030F4109371
:102D6000820508C082E0809352051092820502C05D
:102D70001092520585EE94E00E94A2040E945733FF
:102D800020917E0530917F0540918005509181050D
:102D9000621B730B840B950B615D77408040904004
:102DA00008F4DEC0809113058093CC02D9C0853031
:102DB00029F48091CD029091CE0214C0863029F47E
:102DC0008091CF029091D0020DC0873029F480917C
:102DD000D1029091D20206C0883041F48091D30292
:102DE0009091D4029093840580938305809185050A
:102DF0002091830530918405882309F04DC0B7E008
:102E000029303B07C8F00E94573361567A4E804004
:102E1000904020F481E0809382050CC0809182056F
:102E2000813041F080914705813021F085EE94E0BA
:102E30000E94A20482E02DC084E0203B380768F4A1
:102E400080915205882349F01092820585EE94E026
:102E50000E94A2041092520583C0205B3440295581
:102E6000324008F07DC080918605863009F478C034
:102E700080915205813009F473C0809147058130FB
:102E800009F46EC01092820585EE94E00E94A204BF
:102E900081E08093520564C0215B344008F460C037
:102EA0000E94573361567A4E8040904008F041C0EE
:102EB000809182058130E9F1E0907E05F0907F05F8
:102EC000009180051091810588EE93E0A0E0B0E0CC
:102ED000E80EF91E0A1F1B1F0E945733E616F7065D
:102EE00008071907E8F581E08093820517C0109262
:102EF000820585EE94E00E94A20480915205823002
:102F000019F41092520503C08F5F8093520580918F
:102F10005205823018F082E0809352050E945733A8
:102F200060937E0570937F05809380059093810563
:102F300017C0E0907E05F0907F050091800510910C
:102F4000810588EE93E0A0E0B0E0E80EF91E0A1FCC
:102F50001B1F0E945733E616F7060807190738F2B9
:102F60001F910F91FF90EF90089585EE94E00E94DD
:102F7000A2040E94C2130E9436070895CF93DF93E4
:102F8000AC01E0918C05F0918D0520918E0530917A
:102F90008F05C9018C599F4F8E179F0714F0EA01C6
:102FA00002C0EA01219724563040E217F3070CF4DF
:102FB0002196842F90E0C817D90749F080918605A3
:102FC000882329F080E596E04C2F0E944131CE0104
:102FD000DF91CF910895EF92FF920F931F930E947C
:102FE000573320914105309142054091430550915E
:102FF0004405261737074807590708F03BC10E94C8
:1030000057336C507E4F8F4F9F4F609341057093A5
:103010004205809343059093440585EE94E00E9419
:10302000A20485EE94E065E047E00E947D0385EE12
:1030300094E00E94550480918E0590918F05892B14
:10304000B1F48091900590919105892B81F4809144
:103050008C0590918D0590938F0580938E058091BE
:1030600092059091930590939105809390052091FE
:103070009205309193054091900550919105C901B9
:10308000845690404817590724F4809186058F5F35
:1030900008C02C593F4F241735072CF48091860522
:1030A0008150809386058091860587FF03C010922A
:1030B000860505C083301CF082E0809386058091F0
:1030C0008605813009F443C0823009F47DC088232D
:1030D00009F0D0C000D000D005EE14E0ADB7BEB707
:1030E00012961C930E93119783EB91E014969C9388
:1030F0008E9313970E94782A00D000D0EDB7FEB7C8
:103100003196ADB7BEB712961C930E93119782EB12
:1031100092E09383828380914D0584831582809110
:103120000A05868317820E94892AEDB7FEB7389672
:103130000FB6F894FEBF0FBEEDBF80914D0590E035
:103140006CE773E00E94BE1780934D0593C000D0DA
:1031500000D005EE14E0ADB7BEB712961C930E93E7
:10316000119781EA91E014969C938E9313970E9495
:10317000782A00D000D0EDB7FEB73196ADB7BEB714
:1031800012961C930E93119782EB92E093838283A5
:1031900080914C058483158280910A05868317826D
:1031A0000E94892AEDB7FEB738960FB6F894FEBF95
:1031B0000FBEEDBF80914C0590E06EE773E00E947A
:1031C000BE1780934C0556C000D000D065EEE62EA9
:1031D00064E0F62EADB7BEB71296FC92EE92119750
:1031E00080E991E014969C938E9313970E94782A1D
:1031F000EDB7FEB738970FB6F894FEBF0FBEEDBF20
:103200000DB71EB70F5F1F4FF282E1828AEB92E08B
:10321000D80113969C938E93129760914E0570E09F
:1032200080E090E00E94393620E030E040E251E456
:103230000E94A035F801648375838683978386E7AF
:1032400090E09187808780E290E0938782870E9458
:10325000892A8DB79EB70C960FB6F8949EBF0FBE05
:103260008DBF80914E0590E060E873E00E94BE172C
:1032700080934E0585EE94E00E9439041F910F91D2
:10328000FF90EF900895EF92FF920F931F930E948B
:1032900057330E9439367B018C016091A0057091F3
:1032A000A1058091A2059091A30520E030E849E0B6
:1032B00055E40E94D3349B01AC01C801B7010E94C0
:1032C000993588230CF0A7C280917C05843010F0DA
:1032D0000E94661680918205882309F099C2809128
:1032E0005205823009F475C2A82FB0E0FD01E65BFB
:1032F000FB4F808180FF0BC0FD01E255FB4F6081D9
:10330000A455BB4F8C9190E070E00E94791480919D
:103310005205A82FB0E0FD01EC5BFB4F808180FFE0
:103320000BC0FD01E25BFB4F6081A45BBB4F8C9146
:1033300090E070E00E949F1380915205A82FB0E0AA
:10334000FD01EC5BFB4F808181FF0BC0FD01EE5A5C
:10335000FB4F6081A05BBB4F8C9190E070E00E94BE
:10336000DC0D80915205A82FB0E0FD01EC5BFB4F16
:10337000808182FF0BC0FD01EA5AFB4F6081AC5A8D
:10338000BB4F8C9190E070E00E949B0D80915205A4
:10339000A82FB0E0FD01EC5BFB4F808183FF0BC0E9
:1033A000FD01E65AFB4F6081A85ABB4F8C9190E01B
:1033B00070E00E94550D80915205A82FB0E0FD01EC
:1033C000EC5BFB4F808185FF0BC0FD01E25AFB4F98
:1033D0006081A45ABB4F8C9190E070E00E94DC0C9D
:1033E00080915205A82FB0E0FD01EC5BFB4F80817E
:1033F00086FF0BC0FD01EE59FB4F6081A05ABB4F09
:103400008C9190E070E00E94160D80915205A82FDB
:10341000B0E0FD01EC5BFB4F808187FF0BC0FD013D
:10342000EA59FB4F6081AC59BB4F8C9190E070E042
:103430000E948A0C80915205A82FB0E0FD01EC5B40
:10344000FB4F808184FF0BC0FD01E659FB4F60817B
:10345000A859BB4F8C9190E070E00E94760E80914D
:103460005205A82FB0E0FD01EA5BFB4F808180FF91
:103470000BC0FD01E259FB4F6081A459BB4F8C91F9
:1034800090E070E00E94060C80915205A82FB0E0F9
:10349000FD01EA5BFB4F808181FF0BC0FD01EE580F
:1034A000FB4F6081A059BB4F8C9190E070E00E946F
:1034B000480C80915205A82FB0E0FD01EA5BFB4F5C
:1034C000808182FF0BC0FD01EA58FB4F6081AC5840
:1034D000BB4F8C9190E070E00E94EA128091A405AD
:1034E000813051F580915205A82FB0E0FD01EA5BD3
:1034F000FB4F808184FF0BC0FD01E258FB4F6081D0
:10350000A458BB4F8C9190E070E00E941D0E8091FA
:103510005205A82FB0E0FD01EA5BFB4F808183FFDD
:103520000BC0FD01E658FB4F6081A858BB4F8C9142
:1035300090E070E00E944A0B80915205A82FB0E005
:10354000FD01EA5BFB4F808187FF0BC0FD01E65761
:10355000FB4F6081A857BB4F8C9190E070E00E94B8
:103560000E1480915205A82FB0E0FD01EA5BFB4FDD
:10357000808185FF0BC0FD01EE57FB4F6081A05895
:10358000BB4F8C9190E070E00E94BF0B8091520580
:10359000A82FB0E0FD01EA5BFB4F808186FF0BC0E6
:1035A000FD01EA57FB4F6081AC57BB4F8C9190E017
:1035B00070E00E94620B80915205A82FB0E0FD01DF
:1035C000E85BFB4F808182FF0BC0FD01EE56FB4F95
:1035D0006081A057BB4F8C9190E070E00E944C102E
:1035E00080915205A82FB0E0FD01E85BFB4F808180
:1035F00087FF0BC0FD01EA56FB4F6081AC56BB4F05
:103600008C9190E070E00E94A50F80915205A82F48
:10361000B0E0FD01E85BFB4F808183FF0BC0FD0143
:10362000E656FB4F6081A856BB4F8C9190E070E04E
:103630000E944E0F80915205A82FB0E0FD01E85B7B
:10364000FB4F808181FF0BC0FD01E256FB4F608183
:10365000A456BB4F8C9190E070E00E94F70E8091D1
:103660005205A82FB0E0FD01E85BFB4F808184FF8D
:103670000BC0FD01EE55FB4F6081A056BB4F8C91F6
:1036800090E070E00E94B70E80915205A82FB0E044
:10369000FD01E85BFB4F808185FF0BC0FD01EA5512
:1036A000FB4F6081AC55BB4F8C9190E070E00E9465
:1036B0007E0A80915205A82FB0E0FD01E85BFB4F28
:1036C000808186FF0BC0FD01E655FB4F6081A85548
:1036D000BB4F8C9190E070E00E94441380915205A2
:1036E000A82FB0E0FD01E85BFB4F808180FF0BC09D
:1036F000FD01E257FB4F6081A457BB4F8C9190E0D6
:1037000070E00E94A31080915205A82FB0E0FD0147
:10371000E65BFB4F808182FF0BC0FD01EE54FB4F47
:103720006081A055BB4F8C9190E070E00E94E61143
:1037300080915205A82FB0E0FD01E65BFB4F808130
:1037400083FF0BC0FD01EA54FB4F6081AC54BB4FBB
:103750008C9190E070E00E94061080915205A82F95
:10376000B0E0FD01E65BFB4F808184FF0BC0FD01F3
:10377000E654FB4F6081A854BB4F8C9190E070E001
:103780000E94F81080915205A82FB0E0FD01E65B81
:10379000FB4F808186FF0BC0FD01EE53FB4F608124
:1037A000A054BB4F8C9190E070E00E945C1280911D
:1037B0005205A82FB0E0FD01E65BFB4F808185FF3D
:1037C0003BC0FD01EA53FB4F6081AC53BB4F8C9172
:1037D0001AC080914A0480FF08C06091AE048091B5
:1037E000AC0490E070E00E94791480914A0485FF57
:1037F00023C0E0915205F0E0DF01AA53BB4F6C916A
:10380000EC53FB4F808190E070E00E942B1214C0BB
:103810000E94EB1711C08091D502882321F485EE18
:1038200094E00E94A20481E08093D50285E090E0BC
:103830006AE070E00E94E4131F910F91FF90EF90F7
:103840000895CF93DF93EC0185EE94E00E94790315
:10385000C817D9073CF085EE94E00E946E03892BCF
:1038600009F42397CE01DF91CF910895EF92FF9253
:103870000F931F93CF93DF930091520510E08AEFCF
:1038800090E0089F7001099FF00C189FF00C112424
:10389000C7010E94EA07F801EC5BFB4F882319F08F
:1038A0008081816002C080818E7F808380915205FB
:1038B000C82FD0E0C70102960E94EA07C45BDB4F25
:1038C000888380915205C82FD0E0C70104960E94DA
:1038D000EA0790E00E94211CC25BDB4F88830091C5
:1038E000520510E0C70188569F4F0E94EA07F80171
:1038F000EC5BFB4F882319F08081806102C08081DE
:103900008F7E808380915205C82FD0E0C7018656F4
:103910009F4F0E94EA07C859DB4F88838091520568
:10392000C82FD0E0C70184569F4F0E94EA0790E05D
:103930000E94211CC659DB4F88830091520510E07C
:10394000C70106960E94EA07F801EC5BFB4F88234B
:1039500019F08081826002C080818D7F8083809198
:103960005205C82FD0E0C70108960E94EA07C05B45
:10397000DB4F888380915205C82FD0E0C7010A969B
:103980000E94EA0790E00E94211CCE5ADB4F8883F8
:103990000091520510E0C7010C960E94EA07F80159
:1039A000EC5BFB4F882319F08081846002C080812A
:1039B0008B7F808380915205C82FD0E0C7010E967F
:1039C0000E94EA07CC5ADB4F888380915205C82FAA
:1039D000D0E0C70140960E94EA0790E00E94211CB7
:1039E000CA5ADB4F88830091520510E0C701429606
:1039F0000E94EA07F801EC5BFB4F882319F08081F5
:103A0000886002C08081877F808380915205C82FA3
:103A1000D0E0C70144960E94EA07C85ADB4F88836A
:103A200080915205C82FD0E0C70146960E94EA0750
:103A300090E00E94211CC65ADB4F888300915205FA
:103A400010E0C7014E960E94EA07F801EC5BFB4FBD
:103A5000882319F08081806202C080818F7D8083FD
:103A600080915205C82FD0E0C70180960E94EA07D6
:103A7000C45ADB4F888380915205C82FD0E0C7011C
:103A800082960E94EA0790E00E94211CC25ADB4FF6
:103A900088830091520510E0C70184960E94EA07CE
:103AA000F801EC5BFB4F882319F08081806402C031
:103AB00080818F7B808380915205C82FD0E0C70121
:103AC00086960E94EA07C05ADB4F88838091520590
:103AD000C82FD0E0C70188960E94EA0790E00E94B4
:103AE000211CCE59DB4F88830091520510E0C7019D
:103AF0008A960E94EA07F801EC5BFB4F882319F0D5
:103B00008081806802C080818F7780838091520598
:103B1000C82FD0E0C7018C960E94EA07CC59DB4F32
:103B2000888380915205C82FD0E0C7018E960E94ED
:103B3000EA0790E00E94211CCA59DB4F888300915C
:103B4000520510E0C701C0960E94EA07F801EA5B3F
:103B5000FB4F882319F08081816002C080818E7FB5
:103B6000808380915205C82FD0E0C701C2960E9481
:103B7000EA07C459DB4F888380915205C82FD0E0F3
:103B8000C701C4960E94EA0790E00E94211CC25916
:103B9000DB4F88830091520510E0C701C6960E9452
:103BA000EA07F801EA5BFB4F882319F08081826005
:103BB00002C080818D7F808380915205C82FD0E024
:103BC000C701C8960E94EA07C059DB4F88838091DD
:103BD0005205C82FD0E0C701CA960E94EA0790E0BC
:103BE0000E94211CCE58DB4F88830091520510E0C3
:103BF000C701CC960E94EA07F801EA5BFB4F8823D5
:103C000019F08081846002C080818B7F80838091E5
:103C10005205C82FD0E0C701CE960E94EA07CC58C3
:103C2000DB4F888380915205C82FD0E0C701805CAC
:103C30009F4F0E94EA0790E00E94211CCA58DB4F68
:103C400088830091520510E0C701885B9F4F0E9456
:103C5000EA07F801EA5BFB4F882319F08081806155
:103C600002C080818F7E808380915205C82FD0E072
:103C7000C701865B9F4F0E94EA07C458DB4F8883C9
:103C800080915205C82FD0E0C701845B9F4F0E94EE
:103C9000EA0790E00E94211CC258DB4F8883009104
:103CA000520510E0C7018E5B9F4F0E94EA07F801A2
:103CB000EA5BFB4F882319F08081886002C0808115
:103CC000877F808380915205C82FD0E0C7018C5B2D
:103CD0009F4F0E94EA07C858DB4F888380915205A6
:103CE000C82FD0E0C7018A5B9F4F0E94EA0790E08F
:103CF0000E94211CC658DB4F88830091520510E0BA
:103D0000C701805B9F4F0E94EA07F801EA5BFB4F07
:103D1000882319F08081806202C080818F7D80833A
:103D200080915205C82FD0E0C7018E5A9F4F0E9444
:103D3000EA07C058DB4F888380915205C82FD0E036
:103D4000C7018C5A9F4F0E94EA0790E00E94211CF5
:103D5000CE57DB4F88830091520510E0C7018A5A85
:103D60009F4F0E94EA07F801EA5BFB4F882319F096
:103D70008081806402C080818F7B80838091520526
:103D8000C82FD0E0C701885A9F4F0E94EA07CC573E
:103D9000DB4F888380915205C82FD0E0C701865A37
:103DA0009F4F0E94EA0790E00E94211CCA57DB4FF8
:103DB00088830091520510E0C70182569F4F0E94F0
:103DC000EA07F801EA5BFB4F882319F080818068DD
:103DD00002C080818F77808380915205C82FD0E008
:103DE000C70180569F4F0E94EA07C857DB4F888360
:103DF00080915205C82FD0E0C7018E559F4F0E9479
:103E0000EA0790E00E94211CC657DB4F888300918F
:103E1000520510E0C7018E599F4F0E94EA07F80132
:103E2000E85BFB4F882319F08081816002C08081AC
:103E30008E7F808380915205C82FD0E0C7018C59B6
:103E40009F4F0E94EA07C457DB4F88838091520539
:103E5000C82FD0E0C7018A599F4F0E94EA0790E01F
:103E60000E94211CC257DB4F88830091520510E04D
:103E7000C70182599F4F0E94EA07F801E85BFB4F98
:103E8000882319F08081846002C080818B7F8083C9
:103E900080915205C82FD0E0C70180599F4F0E94E2
:103EA000EA07C057DB4F888380915205C82FD0E0C6
:103EB000C7018E589F4F0E94EA0790E00E94211C84
:103EC000CE56DB4F88830091520510E0C70184571E
:103ED0009F4F0E94EA07F801E85BFB4F882319F027
:103EE0008081806802C080818F77808380915205B5
:103EF000C82FD0E0C70182579F4F0E94EA07CC56D7
:103F0000DB4F888380915205C82FD0E0C7018057CE
:103F10009F4F0E94EA0790E00E94211CCA56DB4F87
:103F200088830091520510E0C7018E569F4F0E9472
:103F3000EA07F801E85BFB4F882319F08081826073
:103F400002C080818D7F808380915205C82FD0E090
:103F5000C7018C569F4F0E94EA07C456DB4F8883E7
:103F600080915205C82FD0E0C7018A569F4F0E940A
:103F7000EA0790E00E94211CC256DB4F8883009123
:103F8000520510E0C7018C589F4F0E94EA07F801C4
:103F9000E85BFB4F882319F08081886002C0808134
:103FA000877F808380915205C82FD0E0C7018A584F
:103FB0009F4F0E94EA07C856DB4F888380915205C5
:103FC000C82FD0E0C70188589F4F0E94EA0790E0B1
:103FD0000E94211CC656DB4F88830091520510E0D9
:103FE000C70186589F4F0E94EA07F801E85BFB4F24
:103FF000882319F08081806102C080818F7E808358
:1040000080915205C82FD0E0C70184589F4F0E946D
:10401000EA07C056DB4F888380915205C82FD0E055
:10402000C70182589F4F0E94EA0790E00E94211C1E
:10403000CE55DB4F88830091520510E0C7018058B0
:104040009F4F0E94EA07F801E85BFB4F882319F0B5
:104050008081806202C080818F7D80838091520543
:10406000C82FD0E0C7018E579F4F0E94EA07CC555A
:10407000DB4F888380915205C82FD0E0C7018C5751
:104080009F4F0E94EA0790E00E94211CCA55DB4F17
:1040900088830091520510E0C7018A579F4F0E9404
:1040A000EA07F801E85BFB4F882319F08081806400
:1040B00002C080818F7B808380915205C82FD0E021
:1040C000C70188579F4F0E94EA07C855DB4F888376
:1040D00080915205C82FD0E0C70186579F4F0E949C
:1040E000EA0790E00E94211CC655DB4F88830091AF
:1040F000520510E0C7018C559F4F0E94EA07F80156
:10410000E65BFB4F882319F08081816002C08081CB
:104110008E7F808380915205C82FD0E0C7018A55D9
:104120009F4F0E94EA07C455DB4F88838091520558
:10413000C82FD0E0C70188559F4F0E94EA0790E042
:104140000E94211CC255DB4F88830091520510E06C
:10415000C70180559F4F0E94EA07F801E65BFB4FBD
:10416000882319F08081846002C080818B7F8083E6
:1041700080915205C82FD0E0C7018E549F4F0E94F6
:10418000EA07C055DB4F888380915205C82FD0E0E5
:10419000C7018C549F4F0E94EA0790E00E94211CA7
:1041A000CE54DB4F88830091520510E0C7018A543A
:1041B0009F4F0E94EA07F801E65BFB4F882319F046
:1041C0008081886002C08081877F808380915205D2
:1041D000C82FD0E0C70188549F4F0E94EA07CC54F3
:1041E000DB4F888380915205C82FD0E0C7018654E9
:1041F0009F4F0E94EA0790E00E94211CCA54DB4FA7
:1042000088830091520510E0C70184549F4F0E949B
:10421000EA07F801E65BFB4F882319F08081806193
:1042200002C080818F7E808380915205C82FD0E0AC
:10423000C70182549F4F0E94EA07C854DB4F88830E
:1042400080915205C82FD0E0C70180549F4F0E9433
:10425000EA0790E00E94211CC654DB4F888300913E
:10426000520510E0C7018E539F4F0E94EA07F801E4
:10427000E65BFB4F882319F08081806802C0808153
:104280008F77808380915205C82FD0E0C7018C536F
:104290009F4F0E94EA07C454DB4F888380915205E8
:1042A000C82FD0E0C7018A539F4F0E94EA0790E0D1
:1042B0000E94211CC254DB4F88830091520510E0FC
:1042C000C70188539F4F0E94EA07F801E65BFB4F46
:1042D000882319F08081806202C080818F7D808375
:1042E00080915205C82FD0E0C70186539F4F0E948E
:1042F000EA07CC53DB4F888380915205C82FD0E06A
:10430000C70184539F4F0E94EA0790E00E94211C3E
:10431000CA53DB4F8883DF91CF911F910F91FF909C
:10432000EF9008958F929F92AF92BF92CF92DF92BB
:10433000FF920F931F93CF93DF93F62E4901C82E60
:10434000DD248601000F111F5801AC0CBD1CE501D6
:10435000CC0FDD1FCC0FDD1FCB5DD94F18828B81B9
:104360009C818430910509F48EC0853091055CF400
:104370008230910509F443C0833091050CF0BFC031
:104380009923C4F44FC28730910509F443C18830A2
:10439000910544F48530910509F4DEC0069709F0D3
:1043A00041C207C18830910509F47AC1099709F023
:1043B00039C2E7C18EEF681709F034C282E090E09D
:1043C0009C838B8380E790E0C89ED001C99EB00D8E
:1043D000D89EB00D1124AB54BA4F13961C9213976C
:1043E00088E390E0C89EF001C99EF00DD89EF00DC4
:1043F0001124EE0FFF1FE954FA4F6083A4C1E5E6D4
:10440000E61788F489818F5F8983F501EE0FFF1F1E
:10441000EE0FFF1FE95DF94F80818F5F8083188267
:1044200081E090E02DC080E790E0C89EF001C99E39
:10443000F00DD89EF00D1124EB54FA4F63831D82CA
:1044400080818627282F2295207F282730E0522F31
:104450004427C90163E0880F991F6A95E1F748274F
:104460005927818190E04827592784E03595279581
:104470008A95E1F7422753275183408384E090E0F7
:104480009C838B83CFC18CE190E0C89EF001C99ED4
:10449000F00DD89EF00D1124EE0FFF1FEE0FFF1F41
:1044A000E754FA4F608380E790E0C89EF001C99E10
:1044B000F00DD89EF00D1124EB54FA4F8081862721
:1044C000282F2295207F282730E0522F4427C9012A
:1044D000B3E0880F991FBA95E1F7482759278181E2
:1044E00090E048275927A4E035952795AA95E1F74C
:1044F000422753275183408383E090E0C1CF80E778
:1045000090E0C89EF001C99EF00DD89EF00D1124D8
:10451000EB54FA4F658380818627282F2295207FD0
:10452000282730E0522F4427C90163E0880F991FE4
:104530006A95E1F748275927818190E04827592754
:1045400004E0359527950A95E1F7422753275183D3
:10455000408385E090E094CF80E790E0C89EF00132
:10456000C99EF00DD89EF00D1124EB54FA4F6683CE
:1045700080818627282F2295207F282730E0522F00
:104580004427C901B3E0880F991FBA95E1F748277E
:104590005927818190E048275927A4E03595279530
:1045A000AA95E1F7422753275183408386E090E0A4
:1045B00067CF80E790E0C89EF001C99EF00DD89EBD
:1045C000F00D1124EB54FA4F678380818627282F42
:1045D0002295207F282730E0522F4427C90163E02D
:1045E000880F991F6A95E1F748275927818190E044
:1045F0004827592794E0359527959A95E1F7422762
:104600005327518340838381882309F446C087E080
:1046100090E036CF6D81F80183E0EE0FFF1F8A95A1
:10462000E1F7E01BF10B319603E0EE0FFF1F0A9557
:10463000E1F7E60FF11DEB54FA4FF0826F5F6D83E7
:1046400080E790E0C89EF001C99EF00DD89EF00D65
:104650001124EB54FA4F80818F25282F2295207F3B
:10466000282730E0522F4427C901B3E0880F991F53
:10467000BA95E1F748275927818190E048275927C3
:10468000A4E035952795AA95E1F742275327518352
:1046900040838381681709F0C5C088E090E0F0CEC0
:1046A00080E790E0C89ED001C99EB00DD89EB00DA5
:1046B0001124AB54BA4F9C911796EC911797F0E0E8
:1046C000EC50FD4F80818927482F4295407F482735
:1046D00050E0342F2227CA0173E0880F991F7A9582
:1046E000E1F72827392711968C91119790E0282718
:1046F000392764E0559547956A95E1F724273527D2
:1047000011963C932E938F2D90E030708217930773
:10471000F9F0F501EE0FFF1FEE0FFF1FE95DF94FF6
:1047200080818F5F8083188281E090E09C838B83FF
:10473000FEEFFF1609F076C082E090E09C838B8349
:1047400013961C9213978FEF9FEF8D939C936AC0E3
:1047500089E090E09C838B83F80183E0EE0FFF1FDC
:104760008A95E1F7E01BF10B319613E0EE0FFF1F86
:104770001A95E1F78D81E80FF11DEB54FA4FF082A5
:1047800051C0262F30E080E790E0C89EB001C99E5E
:10479000700DD89E700D11246B547A4FFB018181EE
:1047A00090E028173907E9F0F501EE0FFF1FEE0F33
:1047B000FF1FE95DF94F80818F5F8083188281E060
:1047C00090E09C838B83FEEFFF1661F582E090E022
:1047D0009C838B83EB011B828FEF9FEF99838883F0
:1047E00021C081E0888381E090E09C838B83F80185
:1047F000A3E0EE0FFF1FAA95E1F7E01BF10B319646
:1048000033E0EE0FFF1F3A95E1F78D81E80FF11DC0
:10481000EA54FA4FF082DA01FB0180E701900D9231
:104820008150E1F7D601AA0FBB1FAC0DBD1DAA0F29
:10483000BB1FAA0FBB1FAB5DB94F8C91813069F5CF
:104840008CE190E0C89EF001C99EF00DD89EF00D5D
:104850001124EE0FFF1FEE0FFF1FE754FA4F808168
:1048600016968C93169718968D919C911997892B73
:1048700021F41B961C921E921A97F601EE0FFF1F51
:10488000EC0DFD1DEE0FFF1FEE0FFF1FEB5DF94F4F
:1048900080859185019691878087F601EE0FFF1F35
:1048A000EC0DFD1DEE0FFF1FEE0FFF1FDF01AB5DD7
:1048B000B94F16968C9116978F5FE4018E831896E8
:1048C0008D919C91199799878887E95DF94F80812F
:1048D0008A871B8610828C91DF91CF911F910F9157
:1048E000FF90DF90CF90BF90AF909F908F900895F2
:1048F0004F925F927F928F929F92AF92BF92CF9290
:10490000DF92EF92FF920F931F93DF93CF93CDB778
:10491000DEB7C854D0400FB6F894DEBF0FBECDBF8F
:1049200005EE14E0C8010E94A204C80166E049E057
:104930000E947D03C8010E94550400D000D0EDB74D
:10494000FEB71283018381E192E0948383830E9406
:10495000782A0F900F900F900F90C8010E94390491
:1049600000D000D008EC14E0EDB7FEB7128301834D
:1049700081E092E0948383830E94782A36EF432E6D
:1049800031E0532EEE24FF24CC24DD240F900F9031
:104990000F900F90702E012F29E0A22EB12CAC0E9B
:1049A000BD1E4E010894811C911C88EC94E00E946D
:1049B0002C2B982F8D3031F08D30DCF180538230EC
:1049C000C0F530C01830A1F59981892F805382300D
:1049D00078F5913311F490E801C090E08A81813339
:1049E00009F4905C8B81813309F4905E8C81813372
:1049F00009F4905F8D81813309F4985F8E81813352
:104A000009F49C5F8F81813309F49E5F888581332F
:104A100009F49F5FF501EE0DFF1D90830894E11CE2
:104A2000F11C06C0F401E10FF11D90831F5F01C06E
:104A300010E0F0E4EF16F104C9F485EE94E0B6015D
:104A4000A5010E948D030894C11CD11C00D000D088
:104A5000EDB7FEB771820283548243820E94782AA6
:104A6000EE24FF240F900F900F900F90FFEFCF16C2
:104A7000D10409F00CF499CFC85BDF4F0FB6F8945E
:104A8000DEBF0FBECDBFCF91DF911F910F91FF9081
:104A9000EF90DF90CF90BF90AF909F908F907F90DE
:104AA0005F904F900895AF92BF92CF92DF92EF92B6
:104AB000FF920F931F93DF93CF93CDB7DEB7CC5701
:104AC000D0400FB6F894DEBF0FBECDBF4DE0E42E50
:104AD000F12CEC0EFD1E5E010894A11CB11CCC242F
:104AE000C3948E010B5E1F4F01C288EC94E00E94BC
:104AF0002C2BD82E8091A505882311F50E945733C1
:104B000060527E4480409040D8F40E9457336958E8
:104B1000734180409040A0F0FAE0DF1619F02DE0DC
:104B2000D21631F48091A6058F5F8093A60502C04E
:104B30001092A6058091A605833011F40E94782476
:104B400080E06D2DA70195010E949221882309F430
:104B5000C9C1C092A5058C89833209F471C1843220
:104B600060F4813009F449C08130B8F0883109F42B
:104B700064C08E3109F0B6C1DDC08E3309F408C1BE
:104B80008F3320F48A3209F0ADC155C18A3409F45B
:104B900086C0883A09F0A6C17FC1C0921F058A89E4
:104BA0008093A7058B898093A805F8018481809361
:104BB0001205F701808580931305F80186818093A3
:104BC000A9058823880F880B8C21809353051092A8
:104BD000AA050E9457330E9439366093A00570934E
:104BE000A1058093A2059093A3058091D502813001
:104BF00009F078C18093AB0575C1F70166897789A3
:104C000080E090E00E94393620E030E04AE754E44A
:104C10000E94A03560933605709337058093380560
:104C200090933905F701808D918D90936505809360
:104C3000640586A180933E0555C1F701608971899D
:104C4000828993890E943B3620E836E948E15BE49B
:104C50000E94A03560932C0570932D0580932E053E
:104C600090932F05F70164897589868997890E9439
:104C70003B3620E836E948E15BE40E94A0356093CA
:104C80003005709331058093320590933305F80118
:104C9000848D80933505858D8093340523C1F8017B
:104CA00080819181A281B3818093C6029093C702D3
:104CB000A093C802B093C90284819581A681B7816F
:104CC0008093540590935505A0935605B0935705CE
:104CD000F701608D718D882777FD8095982F0E9450
:104CE0003B3660931A0570931B0580931C059093C7
:104CF0001D05F701828D938D9093400580933F05AC
:104D000080899189A289B389809358059093590528
:104D1000A0935A05B0935B05F80184859585A68517
:104D2000B7858093600590936105A0936205B09369
:104D30006305D8C0F701608971898289938921EE62
:104D40003EE245E652E40E946E370E9408366093C8
:104D50000C05F801648175818681978121EE3EE220
:104D600045E652E40E946E370E94083660930D05B6
:104D7000F801648575858685978521EE3EE245E6D6
:104D800052E40E946E370E9408366093AC05AAC0B8
:104D9000F80180819181A281B3818093660590930F
:104DA0006705A0936805B093690584819581A68104
:104DB000B78180936A0590936B05A0936C05B093BF
:104DC0006D058489958990936F0580936E0586891A
:104DD00097899093190580931805F70180A191A1F7
:104DE000909317058093160580899189A289B389CC
:104DF0008093700590937105A0937205B09373052D
:104E0000F80184859585A685B7858093780590936C
:104E10007905A0937A05B0937B05F701808D918D7C
:104E2000A28DB38D8093740590937505A09376053C
:104E3000B093770557C0F70180858093150552C060
:104E4000F8018481958190938D0580938C058681EE
:104E5000978190939305809392058485958590938F
:104E6000CE028093CD02868597859093D002809361
:104E7000CF02F701808D918D9093D2028093D10261
:104E8000F801828993899093D4028093D302F70129
:104E9000858D80939D0526C0F80180819181A28136
:104EA000B3818093870590938805A0938905B0937B
:104EB0008A0584819581A681B78180930E059093A0
:104EC0000F05A0931005B0931105F7018089918912
:104ED000A289B3898093AD059093AE05A093AF05E9
:104EE000B093B0058AE890E00E94BE3388EC94E06D
:104EF0000E94FC2A181619060CF4F7CD8091B10512
:104F00009091B2052B853C85820F931F9093B2053B
:104F10008093B1052B818091B3059091B405820FE8
:104F2000911D9093B4058093B305C458DF4F0FB61D
:104F3000F894DEBF0FBECDBFCF91DF911F910F91CF
:104F4000FF90EF90DF90CF90BF90AF900895CF92F9
:104F5000DF92EF92FF921F93CF93DF9385E090E073
:104F60006CE070E00E94211364EF71E080E090E05B
:104F70000E94653360E2C62E62E0D62EC0E0D0E02B
:104F800010E055EEE52E54E0F52ECE016AEF70E00C
:104F90000E949438892BE9F41E5E85EE94E0612F1F
:104FA0004CE00E947D0385EE94E00E94550400D001
:104FB00000D0EDB7FEB7F282E182D482C3820E94B4
:104FC000782A0F900F900F900F90C7010E9439041C
:104FD000115161E070E080E090E00E94653321961D
:104FE000F7E0C03DDF0789F6DF91CF911F91FF9079
:104FF000EF90DF90CF90089586E061E00E94423408
:1050000008950F931F938091AB05813009F051C033
:1050100005EE14E0C8010E94A204C80163E04AE062
:105020000E947D03C8010E94550400D000D0EDB756
:10503000FEB71283018382E292E0948383830E940D
:10504000782A0F900F900F900F90C8010E9439049A
:105050000E94030662E370E080E090E00E94653306
:105060000E94030662E370E080E090E00E946533F6
:105070000E94030662E370E080E090E00E946533E6
:105080001092AB0560ED77E080E090E00E94653320
:10509000C8010E94A2041092D5020E9457330E94B8
:1050A00039366093A0057093A1058093A205909373
:1050B000A3050E94532587EF94E00E949B311F9126
:1050C0000F9108950F931F93CF93DF9386E061E0D4
:1050D0000E94033408EC14E0C80140E051EE60E0A7
:1050E00070E00E949A2A10935206009351060E9483
:1050F000FC27C5EED4E0CE010E94DB040E94B51768
:1051000064EF71E080E090E00E94653382EF93E00D
:105110000E94EA078C34E1F0CE0163E049E00E948E
:105120007D03CE010E94550400D000D0EDB7FEB73C
:10513000D283C1838CE392E0948383830E94782A94
:105140000F900F900F900F90CE010E943904FFCF67
:105150000E947A071092520507C00E94361C809167
:1051600052058F5F80935205809152058230A8F3DB
:10517000109252050E94A72787EF94E06BE47AE231
:1051800028E730E040E050E000E00E944D3185EE3D
:1051900094E00E94A20487EF94E00E94B331DF9173
:1051A000CF911F910F9108952F923F924F925F924E
:1051B0006F927F928F929F92AF92BF92CF92DF9227
:1051C000EF92FF920F931F93DF93CF9300D000D005
:1051D000CDB7DEB78091A405882349F580913505C8
:1051E000823008F441C180912C0590912D05A09149
:1051F0002E05B0912F058093310690933206A0932F
:105200003306B09334068091300590913105A0911A
:105210003205B09133058093350690933606A093FE
:105220003706B093380681E08093A4051DC1813014
:1052300009F01AC1A090390688E18A15B0F1E09012
:105240005805F090590500915A0510915B05609141
:105250003A0670913B0680913C0690913D06A8016C
:1052600097010E94D2349F7720E030E040E05FE376
:105270000E94633718165CF410923906E0923A06E1
:10528000F0923B0600933C0610933D060EC08A2D1B
:105290008F5F80933906893141F4E0925C05F0928A
:1052A0005D0500935E0510935F05E0903106F09078
:1052B00032060091330610913406C801B7019F777A
:1052C00025E33AEF4EE85CE30E946E370E949D357D
:1052D00069837A838B839C83C801B70120912C0555
:1052E00030912D0540912E0550912F050E94D2340A
:1052F0001B012C019F7720EC3BE649ED57E40E940F
:105300006E375B016C0160913506709136068091B5
:105310003706909138062091300530913105409143
:105320003205509133050E94D2343B014C019F77E6
:1053300020EC3BE649ED57E40E946E3729813A8123
:105340004B815C810E946E377B018C01C601B501E7
:10535000A60195010E946E375B016C01C801B7017F
:10536000A80197010E946E379B01AC01C601B501EF
:105370000E94D3340E94F5370E94083660933A05A4
:1053800070933B0580933C0590933D0560E070E091
:1053900080E89FE329813A814B815C810E94A0359E
:1053A0009B01AC01C201B1010E946E3797FA909443
:1053B00097F89094A40193010E94463520EE3EE2B6
:1053C00045E652E40E946E3720E030E044EB52E4C0
:1053D0000E94D3340E9408369B01AC0197FF04C0A1
:1053E00028593E4F4F4F5F4FCA01B901645B70406F
:1053F0008040904097FF06C0CA01B9016C547F4FAE
:105400008F4F9F4F0E943B3620911A0530911B050C
:1054100040911C0550911D050E94D2340E9408360F
:1054200097FF04C068597E4F8F4F9F4F0E943B36B5
:1054300020E030E044EB53E40E94A03520E030E06F
:1054400040E851E40E946E370E94D13720E030E0FE
:1054500040E85FE30E94D3340E940D366093140548
:10546000613110F0109214050F900F900F900F9073
:10547000CF91DF911F910F91FF90EF90DF90CF9030
:10548000BF90AF909F908F907F906F905F904F9064
:105490003F902F9008950E94490A85EE94E00E9463
:1054A000D4280E94431908956EBD0DB407FEFDCFA8
:1054B0008EB508958DE061E00E9403348BE061E0D9
:1054C0000E9403348CE060E00E9403348AE061E0D3
:1054D0000E9403341CBC80E58CBD8DB58EB508954B
:1054E0008EE396E00E945A2A08958FEF9FE7089571
:1054F000DF93CF93CDB7DEB7FE0139968D819E81C4
:1055000061E04F8158859F010E94192DCF91DF9155
:105510000895DF93CF93CDB7DEB7FE0139968D8125
:105520009E8160E04F8158859F010E94192DCF9187
:10553000DF9108950F931F93DC01ED91FC91028898
:10554000F389E02D20E030E000E010E009951F91A4
:105550000F9108958F92AF92CF92EF92FF920F9397
:105560001F93DF93CF93CDB7DEB7FC011382128276
:1055700088EE93E0A0E0B0E084839583A683B783B0
:105580008EE294E09183808355874487378726870E
:10559000118B008BF38AE28AC48AA58A868A70E01E
:1055A000CB0123E0880F991F2A95E1F79C01215C2C
:1055B000394F308F278B895B994F928F818F81E094
:1055C00090E002C0880F991F6A95E2F720914F067C
:1055D000282B20934F06CF0140E051EE60E070E0B1
:1055E0000E949A2ACF91DF911F910F91FF90EF9027
:1055F000CF90AF908F900895FC01838D882319F48C
:105600002FEF3FEF0DC00788F08DE02D2081318115
:1056100082819381281B390B84819581282339232A
:10562000C9010895FC01838D882319F42FEF3FEF02
:1056300011C0018CF28DE02D208131818281938116
:10564000281B390B20953095848195812823392397
:105650002F5F3F4FC9010895FC01838D882361F0BE
:10566000A789B08D2D913C91119712968D919C91A7
:1056700013972817390721F44FEF5FEFCA010895F8
:1056800012968D919C9113971696ED91FC91179718
:10569000E80FF91F408112968D919C911397019606
:1056A00014962D913C9115978223932313969C93E6
:1056B0008E93129750E0E2CFFC01838D882351F046
:1056C0000788F08DE02D2081318182819381281718
:1056D000390721F42FEF3FEFC901089582819381AB
:1056E0000680F781E02DE80FF91F8081282F30E038
:1056F000F3CFDC015796ED91FC915897828193810D
:10570000918380835996ED91FC915A978081918184
:10571000938382830895DC015B968C915B97882349
:10572000A9F15996ED91FC915A97208131812F5F13
:105730003F4F84819581282339235C968C915C9717
:10574000882329F08281938128173907F9F0828113
:10575000938128173907D9F3808191810680F781D9
:10576000E02DE80FF91F60835996ED91FC915A974F
:10577000318320835296ED91FC9153978081569608
:105780009C91892B808321E030E002C020E030E052
:10579000C9010895CF93DF93EC011B821A828A819D
:1057A0009B81998388831D821C828E819F810097B3
:1057B00021F00E9477321F821E82DF91CF910895DF
:1057C0000F931F938C01DC015296ED91FC9153973E
:1057D000208156968C91569755969C915597892B7A
:1057E00080958223808357968D919C9158970E9433
:1057F000CA2BF801818D928D0E94CA2BD8015B962D
:105800001C921F910F9108950F931F93CF93DF93D5
:105810008C01FC01138212828281938191838083A7
:1058200041E0A1E0B0E001C04F5FFD01042E02C0E5
:10583000EE0FFF1F0A94E2F79B0182E061307807C8
:1058400010F020E032E0E217F30770F3C1E0D0E09F
:1058500002C0CC0FDD1F4A95E2F72197F80126819F
:1058600037812115310541F0848195818C179D0781
:1058700089F0C9010E947732F801D583C483CE0133
:1058800001960E94DA319C01F8019783868380E0BB
:10589000232B09F081E0DF91CF911F910F910895A3
:1058A000AF92BF92CF92DF92EF92FF920F931F932E
:1058B000CF93DF937C015A016B01E901DC015B9618
:1058C0008C915B978823F1F02115310539F45796B7
:1058D000ED91FC915897C481D58121960115110550
:1058E00049F4D7015996ED91FC915A97048115819D
:1058F0000F5F1F4FD701ED91FC910088F189E02DDA
:10590000C7010995F7018789908D209711F4C0E8A8
:10591000D0E0BE010E94042C882381F0D701599663
:105920008D919C915A970115110511F400E110E039
:10593000B8010E94042C882309F04DC0D701ED91D5
:10594000FC910088F189E02DC701099567C0D70156
:105950005096ED91FC915197B0E0AB16B1EEBB06BD
:10596000B0E0CB06B0E0DB0609F454C081E090E083
:10597000D70154960C9002C0880F991F0A94E2F741
:10598000808360E079E08DE390E0A60195010E94BC
:10599000C9382150304040405040CA01B90122E08E
:1059A00030E040E050E00E94C938D7011C96ED91EC
:1059B000FC911D9730831E96ED91FC911F972083DB
:1059C000D7015296ED91FC915397808155969C9109
:1059D000892B808323C0D7015996ED91FC915A976A
:1059E0001382128282819381918380835796ED91F5
:1059F000FC915897138212828281938191838083D4
:105A000081E05B968C931A141B041C041D040CF497
:105A10009ECFD6CF108220E130E0C7CFDF91CF916B
:105A20001F910F91FF90EF90DF90CF90BF90AF90BC
:105A300008952F923F924F925F926F927F928F9232
:105A40009F92AF92BF92CF92DF92EF92FF920F930D
:105A50001F93DF93CF93CDB7DEB764970FB6F8945B
:105A6000DEBF0FBECDBF3C01688B5A8B498B6901ED
:105A70001C01AE014F5F5F4F5C8B4B8BE989FA894C
:105A8000488940FD659140FF6191FA8BE98B66235F
:105A900009F4D7C3653249F440FD859140FF8191F7
:105AA000FA8BE98B8532B1F40CC06A3051F4D30122
:105AB000ED91FC910190F081E02DC1016DE009951F
:105AC0006AE0D301ED91FC910190F081E02DC101DC
:105AD0000995D4CF982F10E0882499241032B0F47F
